:020000040800F2
:10000000903000209D01000843240008FD200008D6
:1000100041240008B9150008D52B00080000000095
:100020000000000000000000000000004928000857
:100030002D1E000800000000BD2400084D29000806
:10004000B7010008B7010008B7010008B7010008B0
:10005000B7010008B7010008291F0008751F000834
:10006000B7010008B7010008B7010008B11B00087C
:10007000B7010008B7010008B7010008B701000880
:10008000B7010008B7010008B7010008B701000870
:10009000B7010008B7010008B7010008B701000860
:1000A000B7010008B7010008B7010008B701000850
:1000B000B7010008B7010008B7010008B701000840
:1000C000B7010008B7010008B7010008B701000830
:1000D000C9250008B7010008DD290008B70100089C
:1000E000B7010008B7010008B7010008B701000810
:1000F000B7010008B7010008B7010008B51B0008E8
:10010000B7010008B7010008B70100082126000860
:10011000B7010008B7010008B7010008B7010008DF
:10012000B7010008B7010008B7010008B7010008CF
:10013000B7010008B7010008B7010008B7010008BF
:10014000B7010008B7010008B7010008B7010008AF
:10015000B7010008B7010008B7010008B70100089F
:10016000B7010008B7010008B7010008B70100088F
:10017000B7010008B7010008B7010008B70100087F
:10018000B7010008B7010008DFF80CD001F0F8F85B
:1001900000480047793D000890300020064880471D
:1001A00006480047FEE7FEE7FEE7FEE7FEE7FEE75C
:1001B000FEE7FEE7FEE7FEE7812900088901000867
:1001C0002DE9F05F0446FF48FD4901600268FE48E2
:1001D000FE490026824232D10860E661A66166616E
:1001E0002661A662666226626068DFF8E4A3DFF833
:1001F000E4B304F11005814610F0FF4F21D02088B0
:1002000000F082FF52465B4600F00FFF074688462B
:10021000484600F09FFF3A46434600F0EDFD074692
:1002200088460821484600F0DBFD00F093FF3A467F
:10023000434600F0FAFE00F074FFA88302E00E606F
:10024000FEE7AE83A76817F0FF4F1FD0B4F8008019
:10025000404600F059FF06468946384600F07AFFCE
:1002600052465B4600F06FFE4B46324600F0C4FD3E
:1002700006460F464FEA082000F046FF32463B464E
:1002800000F0D3FE00F04DFFE88300E0EE8320880D
:100290004FF47A71B0FBF1F02884BDE8F09F2DE9AE
:1002A000FF4FCA49C84A97B00968914200D0FEE79B
:1002B0001A99103100250A6903924A6908928A69DD
:1002C0000792D1E901620C680592CA6806921A9AEF
:1002D0008B8B92890993CB8B0E9316E10778BE4BDB
:1002E000A3F5807813F807C0B444CDF844C018F8DB
:1002F000076010F802A004EB4606A3F5007413F89B
:100300000AC0E75D0CEB0609CDF82C9010F81290AE
:1003100018F80A6007EB460613F809C014F80A70CB
:100320000CEB060E18F8096002EB420C07EB4606D0
:1003300014F80970CDF84CC010F80C9013F809C0EF
:100340000CEB060B18F8096007EB460614F8097069
:1003500010F8229013F809C0B444CDF848C018F83A
:10036000096002EB820C07EB460614F8097010F8DE
:100370000C9013F809C00CEB060A18F80960DDF8B8
:100380004CC007EB460614F8097010F81C9013F8DF
:1003900009C0B444CDF850C018F8096014F809C079
:1003A00007EB4606C2EBC207DDF82C90C75DDB5DAC
:1003B0003344139318F80730E45D0CEB4306C9EBA4
:1003C000C903DDF844C003EB4307CCEBCC0307EBD8
:1003D0008303CEEB0E1C63440BEB8B0C03EB4C0343
:1003E000DDF848C00CEB4C0803EB48030AEB4A0C61
:1003F0006344DDF850C09C44069B6344DDF844C070
:1004000001930CEBCC039B0003EB4703CEEBCE0731
:1004100007EB0E1703EB47030BEB4B0703EB07133D
:10042000CAEBCA0703EB081307EB0A17DDF850C045
:1004300003EB4703CCEBCC0707EB470803EB48077C
:10044000139BDDF848C003EBC30307EB8307059B51
:100450000CEB8C0C3B4406930BEB4B070EEB4E0363
:100460007F004B4407EB4C073B44CAEB0A173B4465
:1004700003EB0807139BC3EBC30307EB830305934D
:10048000019B0E9FA3F500338FB1039F07EB030C75
:10049000089FACEB0707DDF838C007FB0CF74FEA05
:1004A000E77C07EB1C673F12039708933B46099FC5
:1004B00077B1DDF81CC0C7F5807707FB0CF7DDF8D6
:1004C00024C00CFB0373DF1703EB17631B120793A6
:1004D000199F7B43002B01DD083300E0083BDF1749
:1004E00003EB17733D4F1B11BB4203DB7F42BB4243
:1004F00000DC1F463B461A9FDDF860C000EBC200DF
:10050000FF896F436D1C2CF817300B8CAB423FF703
:10051000E5AEC1E90046059888600698C860039872
:100520000861089848610798886198B21BB0BDE8D7
:10053000F08F2DE9FF4F2549234A97B00968914272
:1005400000D0FEE71A99103100250A6903924A6922
:1005500008928A690792D1E901620C680592CA681B
:1005600006921A9A8B8B92890993CB8B0E9328E172
:100570000778194BA3F5807813F807C0B444CDF879
:1005800044C018F8076010F802A004EB4606A3F573
:10059000007413F80AC0E75D0CEB0609CDF82C9047
:1005A00010F8129018F80A6007EB460613F809C015
:1005B00014F80A700CEB060E18F8096010E0000041
:1005C000C2A507F400300240CDB5E8B51001002007
:1005D0001F85EB51B81E1940140300204480FFFF13
:1005E00007EB460614F8097002EB420CCDF84CC03C
:1005F00010F80C9013F809C00CEB060B18F8096002
:1006000007EB460614F8097010F8229013F809C099
:10061000B444CDF848C018F8096002EB820C07EB2F
:10062000460614F8097010F80C9013F809C00CEB8A
:10063000060A18F80960DDF84CC007EB460614F806
:10064000097010F81C9013F809C0B444CDF850C0DC
:1006500018F8096014F809C007EB4606C2EBC20798
:10066000DDF82C90C75DDB5D3344139318F8073039
:10067000E45D0CEB4306C9EBC903DDF844C003EBB2
:100680004307CCEBCC0307EB8303CEEB0E1C634498
:100690000BEB8B0C03EB4C03DDF848C00CEB4C0868
:1006A00003EB48030AEB4A0C6344DDF850C09C445A
:1006B000069B6344DDF844C001930CEBCC039B0024
:1006C00003EB4703CEEBCE0707EB0E1703EB470315
:1006D0000BEB4B0703EB0713CAEBCA0703EB08133B
:1006E00007EB0A17DDF850C003EB4703CCEBCC0750
:1006F00007EB470803EB4807139BDDF848C003EB03
:10070000C30307EB8307059B0CEB8C0C3B44069360
:100710000BEB4B070EEB4E037F004B4407EB4C07F4
:100720003B44CAEB0A173B4403EB0807139BC3EB9C
:10073000C30307EB83030593019B0E9FA3F50033CF
:100740008FB1039F07EB030C089FACEB0707DDF8A5
:1007500038C007FB0CF74FEAE77C07EB1C673F123A
:10076000039708933B46099F77B1DDF81CC0C7F596
:10077000807707FB0CF7DDF824C00CFB0373DF1751
:1007800003EB17631B120793199F7B43002B01DDBB
:10079000083300E0083BDF1703EB1773FE4F1B1114
:1007A000BB4203DB7F42BB4200DC1F463B461A9F35
:1007B000DDF860C000EBC200FF896F436D1C2CF8B0
:1007C00017300B8CAB423FF7D3AEC1E9004605981A
:1007D00088600698C860039808610898486107987F
:1007E000886198B2A2E62DE9FF4FEC49EC4A97B038
:1007F0000968914200D0FEE71A99103100250A6974
:1008000003924A6908928A690792D1E901620C68E9
:100810000592CA6806921A9A8B8B92890993CB8BA0
:100820000E9317E1DD4B07781B1D03F5807813F855
:1008300007C0B444CDF844C018F8076010F802A00F
:1008400004EB460603F5007413F80AC0E75D0CEBF1
:100850000609CDF82C9010F8129018F80A6007EBF2
:10086000460613F809C014F80A700CEB060E18F8C7
:10087000096002EB420C07EB460614F80970CDF84C
:100880004CC010F80C9013F809C00CEB060B18F8CC
:10089000096007EB460614F8097010F8229013F867
:1008A00009C0B444CDF848C018F8096002EB820CC6
:1008B00007EB460614F8097010F80C9013F809C0FD
:1008C0000CEB060A18F80960DDF84CC007EB460689
:1008D00014F8097010F81C9013F809C0B444CDF84E
:1008E00050C018F8096014F809C007EB4606C2EBBF
:1008F000C207DDF82C90C75DDB5D3344139318F815
:100900000730E45D0CEB4306C9EBC903DDF844C0D6
:1009100003EB4307CCEBCC0307EB8303CEEB0E1CBE
:1009200063440BEB8B0C03EB4C03DDF848C00CEB82
:100930004C0803EB48030AEB4A0C6344DDF850C053
:100940009C44069B6344DDF844C001930CEBCC034C
:100950009B0003EB4703CEEBCE0707EB0E1703EB31
:1009600047030BEB4B0703EB0713CAEBCA0703EB79
:10097000081307EB0A17DDF850C003EB4703CCEB75
:10098000CC0707EB470803EB4807139BDDF848C08B
:1009900003EBC30307EB8307059B0CEB8C0C3B4479
:1009A00006930BEB4B070EEB4E037F004B4407EB1C
:1009B0004C073B44CAEB0A173B4403EB0807139B65
:1009C000C3EBC30307EB83030593019B0E9FA3F5C2
:1009D00000338FB1039F07EB030C089FACEB0707B5
:1009E000DDF838C007FB0CF74FEAE77C07EB1C6724
:1009F0003F12039708933B46099F77B1DDF81CC06F
:100A0000C7F5807707FB0CF7DDF824C00CFB0373F8
:100A1000DF1703EB17631B120793199F7B43002B10
:100A200001DD083300E0083BDF1703EB17735A4F73
:100A30001B11BB4203DB7F42BB4200DC1F463B462F
:100A40001A9FDDF860C000EBC200FF896F436D1C88
:100A50002CF817300B8CAB423FF7E4AEC1E90046EF
:100A6000059888600698C8600398086108984861EE
:100A70000798886198B259E52DE9FF4F4749484AE0
:100A800098B00968914200D0FEE71B99103100250B
:100A90000A6902924A6906928A690492D1E901625E
:100AA0000B680592CA6808921B9A94898A8B0992EE
:100AB000CA8B10926BE1394A0778121D02F58078D3
:100AC00012F807C0B444CDF858C018F8076010F801
:100AD00004A003EB460602F5007312F80AC0DF5DBE
:100AE0000CEB0609CDF8289010F8149018F80A605D
:100AF00007EB460612F809C013F80A70B444CDF8A3
:100B00002CC018F8096004EB440A07EB460613F8FA
:100B1000097010F80A9012F809C0B444CDF838C032
:100B200018F8096007EB460613F8097010F82490CE
:100B300012F809C0B444CDF83CC018F8096004EBC1
:100B4000840C07EB460613F80970CDF854C010F872
:100B50000C9012F809C0B444CDF844C018F80960EC
:100B600007EB460613F8097010F81A9012F809C03E
:100B70000CEB060E18F80960C4EBC40C07EB460634
:100B800013F8097010F80C9012F809C00CEB060A63
:100B900018F8096006E000004480FFFF1001002003
:100BA000CDB5E8B507EB460613F8097010F8349098
:100BB00012F809C00CEB060B18F8096013F809C00D
:100BC00007EB460604EBC407DDF82890C75DD25D4D
:100BD000DB5D324418F807600CEB4606DDF858C0C0
:100BE000CCEB0C1707EB470709EBC90C07EB8C079D
:100BF000DDF82CC0CCEBCC0C07EB8C07DDF838C053
:100C0000CCEBCC0C0CEB4C0C6744DDF83CC0CCEBD3
:100C10000C1C6744DDF844C00CEB8C0C07EB4C0754
:100C20000EEB4E0C07EB4C070AEB4A0C674407EB44
:100C30000B0C089F6744DDF858C001970CEBCC07FC
:100C4000C7EB8C17C9EB891C6744DDF82CC00CEB93
:100C50008C0808EB8C1C6744DDF838C00CEBCC0822
:100C600008EB8C1C6744DDF83CC00EEBCE08CCEBE7
:100C70000C1C0CEB8C0C6744DDF844C0CCEB0C1C5A
:100C80000CEB8C0C674408EB8E1C67440AEB8A085B
:100C900008EB8A1C6744CBEB8B1C674402EBC20C4D
:100CA000CCEB821CBC44059FC2EB02126744DDF80A
:100CB0002CC008970CEB4C07DDF838C04F440CEB08
:100CC0004C0C4FEA4C08DDF83CC002EB42020CEB46
:100CD0008C0C08EB4C0C6744DDF844C0CCEB0C1CCE
:100CE0006744CEEBCE0C0CEB4C0C6744CAEBCA0C41
:100CF00007EB8C070BEBCB0C07EB8C073A44059208
:100D0000019F109AA7F57A378AB1029A02EB070C75
:100D1000069AACEB0202DDF840C0069702FB0CF22B
:100D20004FEAE27C02EB1C62121202921746099A09
:100D30007AB1DDF810C0C2F5807202FB0CF2DDF86A
:100D400024C00CFB0722D71702EB176212121746BA
:100D500004921A9A5743002F01DD103700E0103F2C
:100D6000FA1707EBD262144F5211BA4203DB7F42EB
:100D7000BA4200DC17463A461B9FDDF864C0FF8983
:100D80006F436D1C2CF81720159A00EB42000A8C5B
:100D9000AA423FF790AEC1E90036059888600898EE
:100DA000C8600298086106984861049888611CB080
:100DB00090B2BDE8F08F00004480FFFF40EA0103DD
:100DC0009B0703D009E008C9121F08C0042AFAD201
:100DD00003E011F8013B00F8013B521EF9D27047C5
:100DE000420005D0C0F3C7525242914201DC0020BC
:100DF000704700EBC15070472DE9FE4F804681EAF5
:100E00000300C00F0C46009021F0004123F0004584
:100E1000B8EB0200A94105D24046214690461C4647
:100E20000B46024623F00040104304D140462146C1
:100E300003B0BDE8F08F270DC7F30A00C3F30A51D2
:100E40000290401A0190402866DAC3F3130040F480
:100E5000801B0098924620B10023D2EB030A63EB7B
:100E60000B0B01985946C0F14002504600F0CCF9F6
:100E700006460D4650465946019A00F0E4F910EB3B
:100E800008006141002487EA115284EAE7731A439B
:100E90003BD0009A3AB3019A012A4FEA075210DC7C
:100EA000001B61EB02014FF0004202EA0752CDE95C
:100EB0000042001C41F5801132462B4600F0E2F959
:100EC000B6E7001B61EB0201001C41F5801300181E
:100ED0005B412018A2F5001747EB030140EAD570EB
:100EE000B6196D4111E06D084FEA360645EAC07546
:100EF0004FEA0752001B61EB0201001C41F5801113
:100F000049084FEA30000019514132462B4603B0E0
:100F1000BDE8F04F00F0A9B900980122400000237D
:100F2000D0EB020263EBE073009821464FEAE074D5
:100F3000B8EB000061EB0401E9E783F000435BE7F5
:100F400081F0004158E72DE9FE4F81EA030404F0E7
:100F5000004421F0004100944FF0000B23F00043C7
:100F600050EA010402D052EA030404D100200146F1
:100F700003B0BDE8F08FC3F30A54C1F30A552C4403
:100F8000A4F2F3340194A0FB0254C1F3130141F421
:100F90008011C3F3130343F4801301FB024400FBED
:100FA000034E840A970A44EA815447EA8357A4FB14
:100FB000076802958D0A05FB07854FEA932C04FB11
:100FC0000C542705029D4FEA065847EA1637B5EB41
:100FD00008056EEB070C870E920E47EA811742EA6E
:100FE0008312A7FB0201B6EB0B0164EB00042B0D8F
:100FF00043EA0C335E1844EB1C50DA465146E7FBDB
:101000000201C5F313044FEA0B3343EA14534FEACA
:101010000432019C43EA0603A4F10C040294009CF0
:10102000CDE900B400F02EF9A2E72DE9F04D81EAF8
:10103000030404F0004B21F0004514464FF0000A71
:1010400023F0004150EA050220D054EA01021DD0ED
:10105000C5F30A570246C5F31303C1F31300C1F3E6
:101060000A5640F4801543F48013A7EB0608101BC2
:10107000D64608F2FD3873EB050002D308F10108EB
:1010800001E092185B41B8F1000F03DA002001463D
:10109000BDE8F08D00204FF48011064684460EE036
:1010A000171B73EB050705D3121B63EB0503064300
:1010B0004CEA010C49084FEA300092185B4150EAB3
:1010C0000107EDD152EA030012D082EA040083EA5C
:1010D0000501084303D100224FF0004308E0101B34
:1010E000AB4102D20122002302E06FF00102531053
:1010F0001AEB06004CEB085110EB0A0041EB0B0118
:10110000BDE8F04D00F0B1B80EB540F233410291A8
:101110000021CDE900110A460B4600F0B3F803B0F8
:1011200000BDC1F30A5210B5C1F3130140F2FF3301
:1011300041F480119A4201DA002010BD40F233439D
:101140009A42A2F2334203DC524200F06CF810BD26
:10115000904010BD00F0004230F000400AD0C10DB8
:1011600001F56071C0F3160042EA0151C208400760
:101170001143704700200146704730B50B460146C9
:1011800000202022012409E021FA02F59D4205D326
:1011900003FA02F5491B04FA02F52844151EA2F1D0
:1011A0000102F1DC30BD2DE9F05F054600209246DA
:1011B0009B4688460646814640241BE02846414619
:1011C0004746224600F02FF853465A46C01A91412E
:1011D00010D311461846224600F016F82D1A67EB78
:1011E00001084F4622460120002100F00DF817EBC0
:1011F00000094E41201EA4F10104DFDC48463146BF
:101200002A464346BDE8F09F202A04DB203A00FA34
:1012100002F1002070479140C2F1200320FA03F34D
:10122000194390407047202A04DB203A21FA02F04B
:101230000021704721FA02F3D040C2F12002914010
:10124000084319467047202A06DBCB17203A41FA9B
:1012500002F043EAE07306E041FA02F3D040C2F143
:101260002002914008431946704710B5002B08DA58
:10127000401C41F1000192185B411A4301D120F05A
:10128000010010BD2DE9F04D92469B4611B1B1FA17
:1012900081F202E0B0FA80F220329046FFF7B4FF0C
:1012A00004460F4640EA0A0041EA0B0153465A46FB
:1012B000084303D120463946BDE8F08D114653EA74
:1012C000010015D0C8F140025046FFF7ACFF0546BB
:1012D0000E46504659464246FFF796FF084301D056
:1012E000012000E00020054346EAE0762C43374326
:1012F0000A984FEA4453A0EB08004FEAD4240A307E
:101300004FF0000244EA47544FEAD72502D50020A7
:101310000146D1E7010510196941DDE908450019C9
:101320006941BDE8F04DA0E7C1F30A52C1F31301D2
:1013300040F2FF3341F480119A4202DA0020014664
:10134000704740F233439A42A2F2334202DC5242E7
:10135000FFF769BFFFF758BF30B5002904DB4FF036
:101360000044404264EB0101002B04DB4FF00044D9
:10137000524264EB0303994208BF904230BD000023
:10138000064C074D06E0E06840F0010394E80700D2
:1013900098471034AC42F6D3FEF7FAFED047000867
:1013A000F047000870B501EB020410F8015B15F07E
:1013B000070301D110F8013B2A1106D110F8012BC7
:1013C00003E010F8016B01F8016B5B1EF9D12B07EC
:1013D00005D40023521E0FD401F8013BFAE710F8A0
:1013E000013B02F10202A1EB030303E013F8015BEE
:1013F00001F8015B521EF9D5A142D6D3002070BD81
:1014000070B5244CA16AA06900F090FC002840D07F
:10141000A06880B3A06900F081FC0028FAD1A16A1D
:10142000A06900F0C9FB1C48E16B4FF48036816075
:10143000A168751EB14200D3294601611649A06911
:1014400000F0A8FC0121A06900F0CCFBA068B0422C
:1014500001D2014600E02946E26BB04202EB4101B5
:10146000E16300D20546401BA060A069BDE8704062
:10147000012100F0B7BB0021A06900F0B3FBA16A15
:10148000A06900F099FBE06BBDE87040002100F01E
:1014900033BD70BDC0000020542C0020F8B52F4C87
:1014A000206900250126012839D10121606901F058
:1014B00007F80021A06900F095FBA06900F09CFBF3
:1014C0002748216A0160E169C0E901154021C16036
:1014D0004FF6FE71C0E90415B10281614900C16196
:1014E0008900C0E908150901C0E90A1505634563CB
:1014F00001468563A06900F04DFC01221021A0691E
:1015000000F02EFC94F824008DF800008DF80150B6
:101510008DF802508DF80360684600F093FF206953
:10152000104C012813D000F0FDFA01227121204651
:1015300001F0E4F833208DF800008DF801508DF8AB
:1015400002508DF80360684600F07CFFF8BD012270
:101550000221204601F084F8F8BD0000C000002000
:10156000542C0020003C004070B5104C2569104AF6
:101570002346012D9B69906013D011610C491846D8
:1015800000F008FC0121A06900F02CFB094800884C
:10159000400509D4BDE87040064801211C3800F020
:1015A00084BE48081061E9E770BD0000C00000205B
:1015B000542C00201C3C0040FEE7000030B50446DF
:1015C000012189B0C80300F087FF154D284601F0BE
:1015D0004FF8029400246815ADF80240ADF80440BD
:1015E000ADF80000ADF80600ADF80C40694628469D
:1015F00000F066FE0B48006902280ED101210007A9
:1016000000F06AFF0494059404A90020079400F0F8
:10161000B1FA0121002000F079FA09B030BD0000D4
:10162000003C0040C00000202DE9FC4101210820C1
:1016300000F046FF01278DF8047002248DF8054064
:10164000002510268DF8065000968DF80750694643
:10165000374800F0EDFC0121072000F031FF8DF844
:1016600004408DF805408DF806704FF41070314F2E
:1016700000908DF807506946384600F0D9FC0422E6
:101680000621384600F025FD04220921384600F0E5
:1016900020FD8DF804404FF4A0508DF80540264FF2
:1016A00000908DF806508DF807506946384600F0D6
:1016B000BFFCDFF8888006220421404600F009FDC7
:1016C00006220A21384600F004FD1D480069022860
:1016D0000AD069464046009600F0AAFC06220C217A
:1016E000384600F0F6FC0DE00121084600F0E8FE67
:1016F00003208DF8040000968DF807506946404697
:1017000000F096FC8DF8044080208DF80540009094
:101710008DF806508DF807506946384600F088FC71
:1017200006220721384600F0D4FCBDE8FC81000009
:10173000000C024000040240000802400000024089
:10174000C00000202DE9FF4117460E46FFF76CFF51
:1017500000F032F90121480500F0BEFE374C20466A
:1017600000F0F0FC0020ADF804004BF6FF70ADF87F
:1017700006003320ADF808002015ADF80A0000017E
:10178000ADF80C002E4800900121204600F0D0FC5E
:101790006946204600F022FD0121022000F036F9C2
:1017A0000446AF21042000F031F9264D0444AF2057
:1017B00028708121052000F029F904440421062025
:1017C00000F024F90444304600F00CF9286902289E
:1017D00018D10121082000F019F904440121092041
:1017E00000F014F90444C0210E2000F00FF9044465
:1017F0000021142000F00AF904440021152000F013
:1018000005F904449E21022000F000F9044400215F
:101810000A2000F0FBF8044428690021272000F08A
:10182000F5F804440F211F2000F0F0F80444384676
:10183000FFF7C4FE04B02046BDE8F081005400402C
:10184000A0860100C00000202DE9F047544C8146DD
:101850004FF49610E0604FF40036524D04E0E26819
:10186000501EE060002A72D03146284600F0A0FCED
:101870000028F4D10121284600F086FC4FF4805660
:10188000E660494F04E0E068411EE16000285ED058
:101890003946284600F03DFC0028F4D0002294216F
:1018A000284600F0F8FCE660DFF8008104E0E0681C
:1018B000411EE16000286ED04146284600F029FC18
:1018C0000028F4D04946284600F0EDFCE660DFF839
:1018D000E08004E0E068411EE16000285BD0414602
:1018E000284600F065FC0028F4D00121284600F0CD
:1018F0004BFCE66003E0E068411EE16038B3394626
:10190000284600F006FC0028F5D001229421284644
:1019100000F0C1FCE660264FBF1E03E0E068411EF8
:10192000E160A0B13946284600F042FC0028F5D01D
:101930000021284600F0E3FB1A48183000880121F6
:10194000284600F02BFCE660194F3C3704E022E00B
:10195000E068411EE160F0B13946284600F028FCFD
:101960000028F5D0284600F093FC0746E66004E026
:10197000E068A0F10101E16068B128888005F7D432
:101980000121284600F0BBFB0A49284600F0CDFBA8
:101990003846BDE8F087BDE8F04700F021B8000008
:1019A000C000002000540040010003008200070036
:1019B000040000100004001010B5084C0022102193
:1019C000204600F096FB44F6FF7000F030FA204607
:1019D0000122BDE81040102100F08BBB000C02403A
:1019E0000020704770B5E62802D9A0F1E70401E0B5
:1019F00000F11904E1B2202000F008F80546E1B238
:101A0000212000F003F8284470BD00002DE9F047C4
:101A1000394C4FF4961788468246E7604FF40036FB
:101A2000364D03E0E068411EE160A0B33146284630
:101A300000F0BEFB0028F5D10121284600F0A4FBF0
:101A40004FF48056E660DFF8B89003E0E068411E8E
:101A5000E16000B34946284600F05BFB0028F5D062
:101A600000229421284600F016FCE660DFF89490EE
:101A700003E0E068411EE16068B14946284600F095
:101A800048FB0028F5D05146284600F00CFCE660E3
:101A90001C4EB61E04E010E0E068411EE16060B13B
:101AA0003146284600F035FB0028F5D0414628464F
:101AB00000F0F9FBE760144E09E0BDE8F047FFF7DE
:101AC0008FBFE268501EE0600AB9FFF789FF314618
:101AD000284600F06DFB0028F3D00121284600F0D5
:101AE0005DFB5046FFF7B0FE404502D00120BDE847
:101AF000F0870020FBE70000C000002000540040F9
:101B0000010003008200070004000010044A0123C2
:101B10008340106809B1184300E098431060704793
:101B20000074004010B586B00121104800F0C8FCD8
:101B30000121480700F0D0FC1020049003208DF80C
:101B4000140000248DF8174004A9094800F070FA29
:101B50000094019469460020039400F00BF80121E1
:101B60000020FFF7D3FF06B010BD000001002000E9
:101B70000000024030B5084C236840F6FE728240F7
:101B80009343D1E900252A43D1E902510D432A4369
:101B900082401A43226030BD00740040034A08B5F9
:101BA000104408300090016008BD0000007400403F
:101BB000FFF726BCFFF724BC074A904201D2074832
:101BC00001E005481038064A8B0001EA020101D500
:101BD000C16070478160704710640240006002403D
:101BE0007D0F7D0F0029016802D041F0010101E065
:101BF00021F00101016070472DE9F043016821F0F7
:101C0000010101600021016041608160C1600161EA
:101C1000212141613C493C4A3D251039904202D185
:101C20008D60BDE8F083384A4FF4746618329042F4
:101C300001D18E60F5E7344A4FF474173032904288
:101C400001D18F60EDE7304A4FF0746C483290421A
:101C500002D1C1F808C0E4E72B4B2C4A603398420C
:101C600001D1CA60DDE7284C294B7834A04201D16C
:101C7000CB60D6E7DFF89080264C08F1900840450D
:101C800001D1CC60CDE7DFF880804FF03D5908F1FD
:101C9000A808404502D1C1F80C90C2E71E49DFF800
:101CA00078800839404501D10D60BAE71A4D1835E2
:101CB000A84201D10E60B4E7174D3035A84201D1DA
:101CC0000F60AEE7144D4835A84202D1C1F800C0FC
:101CD000A7E7114D10496035091FA84201D10A60DC
:101CE0009FE70D4A7832904201D10B6099E70A4A8A
:101CF0009032904201D10C6093E7074AA83290429B
:101D00008FD1C1F800908CE7106002403D000020A8
:101D1000400F002000003D201064024001460020DA
:101D20000968C90700D00120704700000246094B2E
:101D300000209A4201D2084A01E0064A103A8B007C
:101D400001D5526800E01268044B1A400A4200D0E4
:101D50000120704710640240006002407D0F7D0F3B
:101D600010B50C0601F01E0304D54AB1446944F0D5
:101D70008004446180290CD042B10168194307E016
:101D8000426922F080024261802902D001689943B1
:101D9000016010BD30B50368124ACC6813400A6870
:101DA0002243D1E905452C432243CC6922430C6AE6
:101DB00022434C6A22438C6A22434C6B22438C6B35
:101DC00022431A430260426922F00703D1E90B243F
:101DD00022431A4342610A6942604A688260896804
:101DE000C16030BD3F801CF04FF4613001F06EBF28
:101DF0000FB400B5A1B023AA6846229901F036F8C5
:101E0000684600F003F821B05DF814FB10B50446F5
:101E100008E00A2802D10D2000F012FE14F8010B90
:101E200000F00EFE20780028F3D110BD704701B5F8
:101E3000009801E0401E00900028FBD108BD002062
:101E4000704710B5642901D9642105E0C1EB012177
:101E50006423B1FBF3F1C9B2FFF774FC08B10120B0
:101E600010BDFFF71BFB002010BD00001C4910B582
:101E700008610C6900224FF40013012C17D00228CE
:101E800014D11848C1E905301748C1E907020B20F1
:101E900048621648886215481038C86214480863BA
:101EA0001248183848631248C01C886310BD0D489A
:101EB000A830C1E905300F48C1E907022F20486268
:101EC0004FF0205088624FF01050C8624FF0015020
:101ED00008634FF0085048634FF00450E5E70000F6
:101EE000C0000020106002400C7400402000001070
:101EF000010080100C3C004010B5084C60784FF495
:101F0000807128B10648FFF72FFB0020607010BDDC
:101F10000448FFF729FB0120F8E700001400002027
:101F2000240500202404002010B5012000F038F81A
:101F3000B0B10E4841688268C831914210D20C4954
:101F40000A68521C0A60D107017821F0C00102D052
:101F500041F0800101E041F0400101708168416081
:101F6000BDE81040012000F015B800000800002076
:101F70000400002010B5022000F012F8002807D05D
:101F8000012000F007FCBDE81040022000F002B87C
:101F900010BD00000149086070470000143C01407A
:101FA000064A014600201268044B0A4014331B689D
:101FB0000B4202D0002A00D001207047003C0140B3
:101FC00030B51A498379026853B30B6893430B60A9
:101FD0000A1D13680468A343136002790A44136856
:101FE000046823431360114A083213680468A3434A
:101FF0001360131D1C680568AC431C604479102CE9
:1020000005D021440A68006802430A6030BD1168A7
:10201000046821431160196800680143196030BDEC
:102020000079084401689143016030BD003C0140E3
:10203000F0B50023012403270D6804FA03F21540CC
:10204000954242D1D0F800C05E0007FA06F52CEAAE
:10205000050CC0F800C091F804C0D0F800E00CFAFC
:1020600006FC4CEA0E0CC0F800C091F804C0BCF1AC
:10207000010F02D0BCF1020F1FD1D0F808C02CEA2A
:10208000050CC0F808C091F805C0D0F808E00CFABB
:1020900006FC4CEA0E0CC0F808C0D0F804C02CEACC
:1020A000020CC0F804C0426891F806C00CFA03FCA8
:1020B0001FFA8CFC42EA0C024260C268AA43C2606A
:1020C000CA79C568B2402A43C2605B1C102BB3D3E7
:1020D000F0BD4B07DB0E9A40C90810B500EB81003C
:1020E000016A0F249C40A1430162016A114301620D
:1020F00010BD0AB10183704741837047FEE7002994
:10210000018802D041F4806101E021F48061018006
:10211000704702460020938A128B43EA024323F061
:102120007F42914300D101207047C94381827047AB
:102130000029018802D041F0010101E021F00101F4
:10214000018070470D4910B5884202D101214C052C
:102150000AE00B49884202D101218C0504E00949BB
:1021600088420AD10121CC05204600F0C1F9204661
:10217000BDE81040002100F0BBB910BD0054004084
:1021800000580040005C00400029018802D041F462
:10219000807101E021F4807101807047002901887D
:1021A00002D041F4007101E021F400710180704718
:1021B0000CB50246002000920A0F21F07F410192E7
:1021C00002D0009A143202E0009A090C18320092F0
:1021D00012680A4200D001200CBD00007FB5044601
:1021E00080880D4620F03F06684600F0A5F9264994
:1021F0000298B0FBF1F189B20E43A680228822F04A
:1022000001022280214B2A689A421BD85200B0FB5F
:10221000F2F080B2042800D20420491C2184A0835B
:10222000208840F00100208021884FF6F5300140E1
:10223000A8886A89104308432080A889298908430F
:1022400020817FBDEB88A3F53F46FF3E05D102EB21
:102250004202B0FBF2F080B208E002EBC20303EBF3
:102260000212B0FBF2F080B240F48040020501D1CE
:1022700040F001004FF4967251434FF47A72B1FB73
:10228000F2F140F40040C8E740420F00A086010090
:10229000008AC0B2704712B141F0010101E001F0C3
:1022A000FE0101827047018270470029818B02D0B4
:1022B00041F4806101E021F4806181837047000076
:1022C000F0B502220023858B01244FF240063540F1
:1022D00085830284858B8E68022E3ED08A8802B167
:1022E0000224274A13681B0203D5136823F4000352
:1022F0001360234A7C3213681268C3F38813204E9C
:10230000C2F30272361F36681E4F06F03F06B7FB57
:10231000F6F65E43B6FBF2F2CB88B3F5007F2CD025
:102320006301B2FBF3F200BF02EB82028B68520042
:10233000B2FBF3F2521D92B20A23B2FBF3F202F0A7
:102340000103D21A4FF6FF74C2F34F0204EA0323CB
:10235000941EFE2C01D302220023CC881A4314437E
:1023600004840A884B881A438B8889890B431A4353
:102370002A4342F400618183F0BD120AD4E70000D1
:102380000838024000127A0010B52C4C207800F07A
:102390000300012808D0022802D003280BD107E04F
:1023A000022000F0EBF906E0022000F0DBF902E089
:1023B000022000F0EFF9207800F00C00042808D08B
:1023C000082802D00C280BD107E0012000F0D6F934
:1023D00006E0012000F0C6F902E0012000F0DAF981
:1023E000207800F03000102808D0202802D03028B3
:1023F0000BD107E0002000F0C1F906E0002000F05A
:10240000B1F902E0002000F0C5F9207800F0C0002A
:1024100040280DD0802806D0C0280ED1BDE810403D
:10242000032000F0B7B9BDE81040032000F0A6B9C2
:10243000BDE81040032000F095B910BD0800002051
:10244000FEE7704770B50F21C478027801234FF082
:10245000E026E4B1124C246804F4E064C4F5E064BE
:10246000C4F30724C4F10405E1404478AC40857806
:102470000D4025430B4C29011155007800F01F0138
:102480008B40400906EB8000C0F8003170BD02F0BF
:102490001F008340500906EB8000C0F8803170BDFA
:1024A0000CED00E000E400E0024908430249086046
:1024B000704700000000FA050CED00E070470000D6
:1024C000044A0029116801D0014300E081431160F2
:1024D0007047000030380240044A0029116801D0DA
:1024E000014300E081431160704700004038024022
:1024F000044A0029116801D0014300E081431160C2
:102500007047000020380240044A0029116801D0B9
:10251000014300E0814311607047000044380240ED
:10252000044A0029116801D0014300E08143116091
:10253000704700002438024070B5204A1168204CD2
:1025400011F00C0104D06610042903D0082903D02F
:1025500004601BE0066019E01849091F0B68C3F30B
:1025600080550B6803F03F0315B1B6FBF3F301E0B0
:10257000B4FBF3F30C680968C4F388146343C1F334
:102580000141491C4900B3FBF1F1016011680F23BF
:1025900003EA11110B4B5C5C0168E1404160146877
:1025A000072505EA94241C5D21FA04F4846012686E
:1025B00005EA52329A5CD140C16070BD08380240D1
:1025C0000024F4000001002010B5124C60212046C8
:1025D00000F07FF800281BD0204600F09BF80F4C3D
:1025E00041BA0D4A206922F81010401C2061402891
:1025F0000ED30020084B20613222543B064861690B
:10260000FDF74DFE6069BDE81040102100F036BBBB
:1026100010BD000000380040F807002068000020CE
:1026200010B50D4C0221204600F04CF8002811D0C6
:102630000A480069022805D1FFF701FC0146042081
:10264000FFF7ACFAFFF7FBFB01462046BDE8104060
:1026500000F062B810BD0000003C0040C000002047
:10266000002A828801D00A4300E08A4382807047B2
:10267000114910B588420AD1841401212046FFF780
:102680004FFF2046BDE810400021FFF749BF0B492E
:10269000884202D10121041404E0094988420AD188
:1026A0000121C4132046FFF723FF2046BDE8104058
:1026B0000021FFF71DBF10BD003001400038004071
:1026C000003C00400246002012890A4200D001204E
:1026D000704710B501F00F040122034602FA04F41A
:1026E000002009098A4091B29A88A4B20A40198947
:1026F000214202D0002A00D0012010BD0909012387
:102700008B40002A828899B201D00A4300E08A43B4
:102710008280704780897047818170471CB504466C
:102720000E48012150F82400FFF7CAFE0B48002193
:10273000083830F81400009001208DF804008DF85E
:1027400006108DF8070002208DF805000448694640
:1027500050F82400FFF76CFC1CBD0000204400086A
:10276000B00000200349044A31F8101052F820004C
:102770004183704718440008B00000200349044A10
:1027800031F8101052F820000183704718440008F7
:10279000B0000020044951F820104A69034B33F877
:1027A000100042404A617047B00000201844000801
:1027B00070B5044622480E4686B050F82400012128
:1027C000FFF77EFE01218803FFF79EFE1C480025CF
:1027D0008DF81050001F8DF8135030F8140003903E
:1027E000184803A950F82400FFF722FC012E25D138
:1027F0001348C01F015D401E005D00F027F810481F
:10280000801E30F8140000908DF8045008208DF8D8
:10281000050001258DF806506846FFF7D1FB0848F2
:10282000801F005D8DF808000F208DF809008DF8DD
:102830000A008DF80B5002A8FFF704FE06B070BD29
:1028400014440008AC0000207047000010B58A074F
:1028500021F003040649130F21440F220C689A400B
:1028600094430C600A68984002430A6010BD00005F
:10287000083801400CB500222E49019200920868E8
:1028800040F4803008604FF4A063086800F4003022
:1028900000900198401C0190009810B9019898424E
:1028A000F3D108688303244841D501220092224ACB
:1028B0003832136843F080531360204A136843F49E
:1028C0008043136002680260026842F400420260C2
:1028D000026842F4A0520260031F194A1A600A6893
:1028E00042F080720A600A689201FCD5154B40F2F2
:1028F00005621A60026822F003020260026842F078
:10290000020202600268C2F38102022AFAD102685E
:1029100022F400020260084A0B487C32106008680A
:1029200040F08060086008680001FCD50CBD009292
:10293000EDE7000000380240083802400070004017
:1029400008544007003C0240804000300A4881683B
:1029500001F10101816009490A68920702D5826884
:10296000920605D00968890704D48068400601D121
:10297000FFF70ABD70470000080000200400002097
:10298000124810B5016841F47001016010480168F7
:1029900041F0010101600E4A002108321160026815
:1029A0000C4B1A400260031D0B4A1A60026822F4A5
:1029B0008022026006480C300160FFF75BFF03498C
:1029C0004FF000608039086010BD000088ED00E025
:1029D00000380240FFFFF6FE1030002470B5154E9F
:1029E00040F227752946304600F060F8341D90B15A
:1029F000124A11485168405C20805068401CC0F366
:102A00000C00506050681168884204D100222946A9
:102A1000304600F06AF840F22551304600F046F8A2
:102A2000002805D02088BDE87040C0B200F008B88A
:102A300070BD0000004400407808002080000020A5
:102A400030B412490A684B68521CC2F30C029A4215
:102A5000F8D072B60A684B689A4201D1012200E0B0
:102A600000220B4B0C6818550868401CC0F30C0082
:102A7000086062B6002A06D030BC012240F22771FD
:102A8000044800F032B830BC7047000080000020DD
:102A900078080020004400400029818902D041F4D8
:102AA000005101E021F400518181704730B501F0FF
:102AB0001F0201240025C1F3421304FA02F2012B84
:102AC0000FD0022B0FD0838A4FEA112100881342C6
:102AD00004FA01F400EA040001D000B101252846FF
:102AE00030BD8389F0E7038AEEE710B5C1F34213E6
:102AF00001F01F040121A140012B07D0022B07D0B8
:102B00001430002A026805D00A4304E00C30F8E7CC
:102B10001030F6E78A43026010BD00007FB504461E
:102B2000008A0D4620F44051E88808432082A0899D
:102B300041F20C618843A9882A8911436A890243BA
:102B40001143A181A08A20F44071A8890843A08282
:102B50006846FFF7F1FC1D48844202D01C488442BD
:102B600001D1039800E00298A1890904002900EB33
:102B7000C00101EB0010296802DA4FEA410101E0CF
:102B80004FEA8101B0FBF1F26420B2FBF0F14FEAB1
:102B900001114FEA11136FF018056B4302EB83022A
:102BA000A3891D044FF0320306D503EBC202B2FB2A
:102BB000F0F000F0070005E003EB0212B2FBF0F0CA
:102BC00000F00F00084320817FBD0000001001408D
:102BD00000140140FEE7000000F040F84FF47A5086
:102BE00000F02CF801F0E6FA104C60888028FCD345
:102BF00080210F4800F0C8FF4FF480710D48FEF7A8
:102C0000B3FC012060700C49302008706078012806
:102C1000FCD08021074800F0B7FF60780028FCD086
:102C20008021034800F0B0FFF0E70000140000200E
:102C300024050020240400200800002010B50446CC
:102C40000120FFF713F90448224601780420FFF71A
:102C5000F8F8002010BD00001400002010B501227B
:102C600010214FF4FA4000F045F8BDE81040102163
:102C7000014800F0CFB80000D80700202DE9F0414E
:102C8000002547F6BC762A46184CC6F1000C184FB2
:102C90000DE000BF30F9023BB34201DA634500DCCE
:102CA0000125B4F802E09644521C27F81E308A42EF
:102CB000F0DB60880844C02801DB002001E0608868
:102CC00008446080E06858B1401EE06002D10220F4
:102CD000FFF748FD002D01D03220E060BDE8F08113
:102CE000002DFBD00220FFF749FDF5E7140000207E
:102CF000240600202DE9FF5F3F4E93468A46306848
:102D000018B104B00020BDE8F09F3C48016841F4D0
:102D1000805101603B489FED3A0A4FF47A5180EDB3
:102D2000010AB2EE040A80ED020A01800124C48186
:102D30008481FDF745FA01210620FFF7C1FB01213F
:102D40000620FFF7BDFB02208DF8040000258DF85A
:102D500006508DF807502C4F8DF805004FF4806811
:102D600069463846CDF80080FFF762F905220A214E
:102D70003846FFF7AEF9DFF89490082769464846D1
:102D80000097FFF755F9052203214846FFF7A1F9FF
:102D90004046FFF789FB24208DF800008DF80140A4
:102DA0008DF802508DF803406846FFF74BFB012178
:102DB0008803FFF791FBDFF858804046FFF758FC87
:102DC0004FF4FA4002902020ADF802004FF440701A
:102DD000ADF80450ADF80000ADF80C70ADF8065039
:102DE00069464046FFF76CFA012260214046FFF732
:102DF00085FCA6E8100C84E768000020303802400B
:102E00000000FA45A4070020000402400008024028
:102E100000380040094A10B513686BB1D1605061A9
:102E2000074C012260212046FFF768FC0121204663
:102E3000FFF73BFA002010BD012010BD6800002004
:102E4000003800400FB4084B10B504A902AA03983B
:102E500000F0DCF8044602A9002000F07AFC2046CD
:102E600010BC5DF814FB00005337000837B514465A
:102E70000846064B6A46214600F0C8F804466946F3
:102E8000002000F066FC20463EBD000053370008DD
:102E900002E008C8121F08C1002AFAD17047704723
:102EA000002001E001C1121F002AFBD17047000081
:102EB0002DE9FF5FDDE90220010DDDF838B00243A6
:102EC00010D10F9801244CA2012808D000210098AD
:102ED0000F9BC0E90021C0E90243BDE8FF9F6FEAF4
:102EE0000B01F4E7A1F2FF3144F6105041430D14F9
:102EF0000F9801280ED0A5EB0B00401C4FF00004EA
:102F00003E4EDFF8FC90B0F1000AA04605DACAF1A7
:102F1000000717E0CBF10000F0E7074612E0F807E2
:102F200007D02246334640464946FEF70CF8804615
:102F300089462246334610461946FEF704F80446F1
:102F40000E467F10002FEAD1DDE90201BAF1000F31
:102F500042464B4602DAFDF7F6FF01E0FEF765F860
:102F600004460E460022274BFEF7F6F903D84FF031
:102F7000FF30014607E00022234B20463146FDF793
:102F80003BFFFEF7D1F9102409E0002C0ADB0A22EE
:102F90000023FEF708F9019B30321A55641E50EAEF
:102FA0000102F2D1641C019AC4F1110314440F9A76
:102FB000012A09D00122084301D15B450FDD4FF002
:102FC000000205F101050DE0084303D1A3EB0B0559
:102FD0006D1E09E000204FF0110B0F9088E701DA19
:102FE00000226D1E002A83D000980F99C0E902319B
:102FF000C0E9004571E700003000000000002440F7
:103000000000F03F0000F0430000E03F2DE9FF4FDB
:1030100095B09B4689460646002512E2252878D1C0
:103020000024761CF94A2746012105943378203B79
:1030300001FA03F0104202D00443761CF6E7307820
:103040002A2811D06FF02F033078A0F13002092A1E
:1030500016D8059A44F0020402EB820203EB420206
:103060001044761C0590EFE759F8042B0592002ACE
:1030700003DA504244F40054059044F00204761CF4
:1030800030782E2816D116F8010F44F004042A28AF
:103090000DD06FF02F023078A0F13003092B09D842
:1030A00007EB870302EB4303C718761CF3E759F8D5
:1030B000047B761C30786C280FD006DC4C2817D0A7
:1030C00068280DD06A2814D104E0742810D07A281A
:1030D0000FD10DE044F400140AE044F4801401E040
:1030E00044F440147278824202D1761C04F58014B4
:1030F000761C307866280BD013DC582877D009DC92
:10310000002875D04528F6D04628F4D047281AD193
:103110009FE118E0632835D0642879D0652812D162
:1031200097E1702873D008DC6728F1D069286FD048
:103130006E280DD06F2806D1B5E073282CD07528E5
:1031400075D0782874D05A46179990476D1C76E14F
:10315000C4F30250022809D003280DD0D9F800107A
:1031600004280DD00D6009F1040968E1D9F80010B8
:10317000EA17C1E90052F6E7D9F800100D80F2E72E
:103180000D70F0E719F8041B8DF8001000208DF881
:103190000100EA46012003E059F804AB4FF0FF308C
:1031A00061074FF0000102D40DE008F101018846EB
:1031B000B9420FDA8045F8DB1AF808100029F4D17B
:1031C00008E008F1010188468142FADB1AF808108C
:1031D0000029F6D105985B46A0EB08072146384642
:1031E000179A00F09EFA284400EB080507E04DE02E
:1031F0002BE10DE01AF8010B5A4617999047B8F1E8
:103200000108F7D25B4621463846179A14E142E09E
:103210000A220092C4F302524FF0000A022A08D098
:1032200059F804CB032A4FEAEC710AD00DE029E0EB
:103230002AE009F1070121F00702F2E802C19146F4
:1032400009E00FFA8CFC4FEAEC71042A03D14FFA23
:103250008CFC4FEAEC71002907DA0A460021DCF108
:10326000000C61EB02012D2202E0220504D52B2285
:103270008DF80420012203E0E20701D02022F7E7C5
:10328000904653E00A2102E010220DE010214FF099
:10329000000A00910BE010224FF0000A44F00404F1
:1032A0000827009203E008224FF0000A0092C4F3BE
:1032B0000252022A05D059F804CB0021032A08D073
:1032C00009E009F1070121F00702F2E802C1914685
:1032D00005E01FFA8CFC042A01D10CF0FF0C4FF022
:1032E0000008220722D5702827D0009B83F0100306
:1032F00053EA0A0309D15CEA010206D030228DF8B4
:1033000004208DF8050002229046009B83F00803FC
:1033100053EA0A030AD15CEA010201D1620705D52A
:1033200030228DF804204FF001087F1E582809D064
:1033300037A003900EA8029013E040228DF80420DD
:103340000122E1E737A0F4E753466046009AFDF713
:103350002AFF84460398825C0298A0F10100029043
:1033600002705CEA0100EFD1029806A9A1EB00000F
:1033700000F1200A600702D524F4803400E0012720
:10338000574502DDA7EB0A0000E0002000EB0A0130
:10339000009005984144A0EB01000590E00306D49D
:1033A0005B462146179A059800F0BBF905440027B3
:1033B00006E001A85A46C05D179990476D1C7F1C16
:1033C0004745F6DBE0030CD55B462146179A059886
:1033D00000F0A7F9054404E030205A4617999047B9
:1033E0006D1C0099481E00900029F5DC08E0029849
:1033F00002995A460078491C0291179990476D1C12
:10340000BAF10001AAF1010AF1DC6BE1092801001F
:10341000303132333435363738396162636465664A
:10342000000000003031323334353637383941420C
:10343000434445460000000000F060F9054406F1F1
:103440000106307800287FF4E9AD19B02846BDE8C0
:10345000F08F620700D4062709F1070222F0070C5B
:10346000FCE80223E14603F000485FEA080C02D0C2
:103470000FF27C2C0DE05FEA045C02D50FF2742C95
:1034800007E05FEAC47C02D00FF26C2C01E0AFF2DF
:10349000700C4FF0FF3823F00043CDF850C0652882
:1034A0000CD006DC452809D046281DD047283ED13F
:1034B0003EE0662818D0672839D139E00021112F65
:1034C00001DB112000E0781CCDE9000106A90EA85F
:1034D000FFF7EEFCDDE90F010E9A03910021009247
:1034E00007F1010A04914EE04FF000400097CDE94A
:1034F000011006A90EA8FFF7DBFCDDE90F0203921D
:103500000E9B11990022DDF80CA00093049219B9CA
:1035100007F1010100EB010AB7EB0A0004D4C0F186
:10352000FF3007F1010A0490AAEB0700019046E082
:10353000012F00DA01270021112F01DD112000E009
:103540003846CDE9000106A90EA8FFF7B1FCDDE978
:103550000F010E9A0391002104910092BA462107AF
:103560000CD40399514500DA8A46BAF1010F05DD02
:10357000009AAAF10101515C302908D0B84202DA60
:1035800010F1040F06DA0121CDE9011017E0AAF1CC
:103590000101E9E7002805DC049901440491AAEB44
:1035A000000102E0411C514500DD8A460499A0EB70
:1035B000010000F1010001904FF00040029020074F
:1035C00004D40198504501DBCDF8048000208DF82B
:1035D0004F0002980DF14F07B0F1004F25D02B207E
:1035E0000E9002984FF0020800280CDA4042029038
:1035F0002D200E9007E00A210298FDF7BEFD303124
:10360000029007F8011DB8F10001A8F10108F2DCF1
:1036100002980028EFD1791E0E980870307800F0DB
:10362000200040F0450007F8020D12A8A0EB0700AB
:1036300000F107081498007800B1012000EB0A019E
:10364000019801EBE07105984144A0EB0100A0F165
:1036500001000590E00306D45B462146179A0598C1
:1036600000F05FF805441498007820B15A46179985
:10367000904705F10105E00323D55B462146179AE3
:10368000059800F04EF805441BE00498002807DB7D
:10369000DDE90301884203DD0098405C179901E0F1
:1036A000179930205A46904704986D1C401C04908E
:1036B0000198401E019004D12E205A461799904738
:1036C0006D1CBAF10001AAF1010ADEDC05E017F871
:1036D000010B5A46179990476D1CB8F10001A8F1EB
:1036E0000108F4DC5B462146179A0598A4E6000021
:1036F0002D0000002B000000200000002DE9F0410B
:10370000044600251E461746880405D406E03946BF
:103710002020B04705F10105641EF8D52846BDE814
:10372000F0812DE9F041044600251E469046C8036D
:1037300001D5302700E02027880405D506E0414662
:103740003846B04705F10105641EF8D52846BDE8A6
:10375000F0810A68531C0B60107070472DE9F04728
:10376000274DDFF8A0800F46AA698146102A37D17D
:10377000D9F80C304FF0FF341E4600204FEA080104
:1037800000EB400C01EBCC0CDCF80CC0B44501DACA
:1037900066460446401C9042F2DB601C12D178075A
:1037A0002BD5BDE8F04719461748FEF721BB00BFEF
:1037B00004EB440108EBC10000F118011822FDF7E9
:1037C000FDFA641CA869401E8442F1DB780704D529
:1037D0000D4831464C30FEF70BFBA869401EA8612E
:1037E000A96901EB4102491C08EBC200A9614946E5
:1037F000BDE8F0471822FDF7E1BABDE8F087000008
:1038000088000020D42800202C4300082DE9F14F27
:10381000D64E00272DED068B92B045F6C055B06907
:1038200013E00024804609E004EB440108EBC100EA
:1038300000F118011822FDF7C1FA641CB069401E9E
:103840008442F1DBB069401EB06128B1C84801680C
:103850004A19F1698A42E4DB0025B14617E16C1C84
:103860000EE1661C02E100BFC14806EB4602009271
:1038700005EB450A50F832C050F83AB0E646ACEBDA
:103880000B02A2F6A17C41F63F78C4456FD200EB53
:10389000CA0CCDF840C0DCF808C04FF4007AD4451B
:1038A00065DA04EB440CCDF810C000EBCC0CCDF87D
:1038B0003CC0DCF80880D04559DADDF8008000EB28
:1038C000C808CDF80C80D8F80880D0454FDA80467B
:1038D00002EBD27CD9F81C300EEB6C00984246DA31
:1038E000049B58F83300A0EB0B03AEEB000A0C93DB
:1038F000534506DD00EE103AF8EEC00A00EE10AABD
:1039000005E000EE10AAF8EEC00A00EE103A109B97
:10391000B8EEC00A80EE801A93ED030A0F9BB8EE52
:10392000C00AD3ED030AF8EEE01AF4EEC01AF1EE85
:1039300010FA01D2B8EEE00A0398D0ED030AF8EECF
:10394000E01AF4EEC01AF1EE10FA01D2B8EEE00A75
:103950001898C00702D0F6EE080A01E0F6EE000A59
:103960000020032392FBF3F220EE800A24E07FE0A4
:10397000A84220D0A0421ED0B0421CD07C4B00EB0D
:10398000400CCDF844C053F83C30ABEB02089845EE
:1039900011DADFF8DC8102EB0E0C9C450BDD119B8C
:1039A00008EBC303D3ED030AF8EEE00AF4EEC00A15
:1039B000F1EE10FA02DC401C8842D9DB884257D174
:1039C0001898C00702D09FED6B0A01E09FED6A0ACC
:1039D000B4EEC10AF1EE10FA4ADD189840073FD55F
:1039E000634806EB460100EBC1014A680399C968C8
:1039F00092FBF1F304EB440100EBC10100934A6830
:103A00000F99C96892FBF1F205EB450100EBC1008B
:103A1000019241681098C06891FBF0F811EE100A0D
:103A2000FDF798FB41EC180B584600F0EDFBDDF874
:103A30000CC0DDE90032DCF80CC0CDE904C8CDE9EA
:103A4000062301460F9A1098D268C068CDE9020299
:103A50008DED008B0C9800EB0A024848FEF7C8F980
:103A6000002047F00107761CC9F8180017B106E0DE
:103A7000761C01E0D9F818108E42FFF6F5AE641CF2
:103A8000D9F81810491E8C42FFF6EBAE6D1CD9F820
:103A900018108A1E9542FFF6E2AEC846D9F81C50AF
:103AA00099ED080A0024DFED360AB0EE001ADFF8BF
:103AB000C0901AE004EB440659F8362002F57A5219
:103AC000AA4211DD09EBC600F0EE601A90ED052A5E
:103AD00042EE011AF4EEC01AF1EE10FA04D20269B5
:103AE000521C0261052A08D0641C8C42E2DB12B031
:103AF0003846BDEC068BBDE8F88F189840072ED5E8
:103B000010EE100AFDF726FB41EC1A0B04EB440003
:103B100009EBC0004C464069FDF71CFB54F83640E9
:103B200041EC180B281B00EE100A9FED161AF8EE58
:103B3000C00A80EE810A10EE100AFDF70BFB41EC83
:103B4000190B204600F060FB01460C488DED02ABDE
:103B50008DED008B53EC192B6030FEF749F90020F6
:103B600047F00207C8F81800C1E7000088000020ED
:103B7000D42800209A99993FCDCC8C3F78420008F8
:103B80000000484200007A462DE9F04701EBD17968
:103B900004464FEA69070025DFF814A1DFF8148115
:103BA00026E0B8F804103E4640463144C02902DD04
:103BB0008188C1F1C006DAF800108088C1F34001A5
:103BC000891C41F00C033C49002201EB40003146C6
:103BD00000F010F90543B8F804003044C02801DBB8
:103BE000002002E0B8F804003044A8F80400BF1B2D
:103BF000002FD6D1DFF8BCC030490CF11C0C2DB31E
:103C0000D8F8142040460ABBDAF80020D20705D0C5
:103C10002B4A02614FF4FA5242610DE08268294E4C
:103C2000136806EB43030361536808324361826003
:103C300052680AB9C0F808C00A7822F030020A7047
:103C40000A7842F01C020A70C8F8187040464FEA21
:103C50006906D0E904321AE0B2B1B3F8008024F862
:103C6000028B33F8028B24F8028B521E0FD191F88D
:103C7000008028F00C0881F8008091F8008048F05E
:103C8000340881F8008002E027806780241D761EBA
:103C9000E2D2C0E904322A4308D1826902EB690109
:103CA000094A8161914201DDC0F808C0BDE8F08792
:103CB000040000201400002024060020080000203A
:103CC000E01603080000010800A60E002DE9F041EF
:103CD0008046012188B04804FEF7FEFB012108461A
:103CE000FEF7EEFB02208DF814008DF8150000247D
:103CF0001F4F0C258DF81640012604958DF817608E
:103D000004A93846FEF794F9072202213846FEF747
:103D1000E0F9072203213846FEF7DBF9ADF8084049
:103D2000ADF80A50134DADF80440CDF80080ADF861
:103D30000640ADF80C4069462846FEF7EFFE01222A
:103D400040F225512846FEF7D0FE26208DF81800B7
:103D50008DF819408DF81A408DF81B6006A8FEF703
:103D600071FB01212846FEF797FE08B0BDE8F081FF
:103D700000000240004400400120FEF7CFFC00207C
:103D8000FEF7CCFC0220FEF7C9FC0320FEF7C6FCC0
:103D90000020FEF7F3FC1448FEF7CEFB12484FF468
:103DA0007A714068B0FBF1F0B0F1807F0CD220F066
:103DB0007F414FF0E020491E41610C4AF021117013
:103DC0000021816107210161FEF70EF808480068B3
:103DD000FEF71CF801210020FEF7EAFC4BF68030CC
:103DE000FEF7FAFEFEE700001404002023ED00E0D9
:103DF000000000202DE9F04F1D462DED068B83B00D
:103E000014460E4607464FF000099FEDD08ADFEDBD
:103E1000D08ADFF840A3DFF840B38EE1B7F9002085
:103E2000BAF902C0BAF9003050461CFB03F101F5A3
:103E30000071A2EBA12109B241B13BB14B404FF05F
:103E4000010848EAA3730CEB43034380028007F1A7
:103E500002071CB1EA0601D524F8021B002901DB88
:103E60000A4601E0C1F1000200EE102AD0ED010A7D
:103E7000B8EEC00A20EE080A00EEA80A80ED010A9A
:103E80003CB1AA0605D5FDEEC00A10EE902A24F832
:103E9000022B00EE901AF8EEE00A80EE801A9FEDF9
:103EA000AF0ADFF8BC8221EE000A10EE101A41457D
:103EB00002DD9FEDAC0A06E010EE101AAA4A91420C
:103EC00001D99FEDAA0A3CB1690605D5FDEEC00AED
:103ED00010EE901A24F8021BA54B0169F0EEC00AFF
:103EE000D0F814C033F91120FDEEE00AACEB020269
:103EF00010EE90CA0FFA8CFC23F811C001F10101F9
:103F00006244C9B2C0E9041202F180026FF07F017D
:103F100001EB22210AB21CB1290601D524F8022B9B
:103F2000944991ED051AD1ED010AD1ED001A91EDF8
:103F3000022A61EE200AD1ED082A40EE210AD1EDD5
:103F4000061A41EE820A91ED032AD1ED071A42EEDC
:103F5000610A91ED042AC1ED081A42EE620AC1ED30
:103F6000070A81ED061A81ED050AB4B1E90514D5F9
:103F700010EE901A414502DD47F6F8710BE010EEA5
:103F8000901A794B994202D948F2080103E0BDEE3C
:103F9000E00A10EE101A24F8021BB0EEE00AD0ED91
:103FA000080A20EE080A00EEA80A80ED080A3CB1D3
:103FB000A90505D5FDEEC00A10EE901A24F8021BE3
:103FC000DAF80C00D04648B16A482430C168914202
:103FD00015DAD8F81C10C26001605DE0002A5BDDD4
:103FE0006448243080ED050AD8F81C30C260C0E96E
:103FF0000032002202610120C8F80C004CE0002AC7
:1040000047DC00EE101A0023C8F80C30F8EEC00AA6
:1040100098ED020AF4EEC00AF1EE10FA3CDDDFED95
:10402000560AEA0720EE200A00EE901A88ED020AEE
:10403000F8EEE00A02D0B7EE041A01E0B7EE081A73
:1040400021EE000AF4EEC00AF1EE10FA24DD426817
:1040500092FBF1F18160290715D54648243040696B
:10406000FDF778F841EC190B42482430006800F065
:10407000CBF801463F488DED009B24308368C26831
:104080003E48FDF7B5FE3B4829462430FFF766FB66
:1040900002E0416811444160D8F81C104FF4C86038
:1040A000491C91FBF0F200FB1210C8F81C1060B91B
:1040B0002846FFF7ABFB98ED020ADFED310A40EA34
:1040C000090920EE200A88ED020AA80725D52D4B04
:1040D000D8F81C2092FBF3F103FB1121E9B9E907A1
:1040E00002D0B7EE040A01E0B7EE080A98ED029A92
:1040F00020EE090A10EE100AFDF72CF841EC1A0B1D
:1041000019EE100AFDF726F841EC100B8DED00AB0F
:1041100053EC102B1CA0FDF76BFED8F81C20594661
:1041200040468A4209DD83693BB9C3682BB992FBDB
:10413000F1F30BFB1321C8F81C10761EBFF46EAE12
:1041400003B04846BDEC068BBDE8F08F0000803B15
:1041500000007F3F8800002000C06552000000433F
:1041600000F0FF4600F0FF4600F0FFC600F0FFC67B
:10417000542A002098280020AE47813FC4430008FD
:1041800077BE7F3F007102007065616B5F7468727B
:104190006573686F6C64203D20252E326620626155
:1041A00073652C20252E32662061637475616C0A5C
:1041B000000000001248DFED111A9FED0D0AC0ED5E
:1041C000001ADFED101A9FED0B1A80ED010ADFEDEA
:1041D0000A0AC0ED021A80ED031AC0ED040A80ED50
:1041E000060A80ED050A80ED080A80ED070A70478F
:1041F00000000000AE05F4BF213D7F3FD5DEC23B8D
:1042000098280020D5DEC2BB7CB512499FED131A59
:1042100090FBF1F41049A4EB041390FBF1F201FBC5
:10422000120000EE100A02EB8305F8EEC00A80EEE1
:10423000810A10EE100AFCF78DFF41EC100B2B46A3
:104240008DED000B224606A10A48FEF7FBFD09484A
:104250007CBD000000E86E0300A60E0000007A4658
:10426000253032643A253032643A2530362E3366B2
:1042700000000000782800202A2A2A206B6E6F6335
:104280006B2064657465637465642C2074696D6566
:10429000203D2025732C207370616E203D20256405
:1042A0002C20726174696F203D20252E33662C20EE
:1042B00068656967687473203D2025642025642043
:1042C00025642C20776964746873203D2025642060
:1042D00025642025640A00002A2A2A2072696E6754
:1042E0002064657465637465642C2074696D652051
:1042F0003D2025732C2064656C6179203D20252E9E
:1043000033662C20707265206C6576656C203D20CC
:10431000252E32662C20706F7374206C6576656C68
:10432000203D20252E32660A000000006164645F93
:104330007065616B28293A206469736361726465F2
:1043400064206E6577657374207065616B202868E2
:104350006569676874203D20256429206265636172
:104360007573652062756666657220776173206675
:10437000756C6C210A0000006164645F7065616B9C
:1043800028293A2064697363617264656420736DDF
:10439000616C6C657374207065616B202868656959
:1043A000676874203D202564292062656361757308
:1043B0006520627566666572207761732066756C2C
:1043C0006C210A007065616B2061646465642C2057
:1043D00074696D65203D2025732C206865696768C8
:1043E00074203D2025642C207769647468203D206A
:1043F00025642C2066696C7465726564206C657632
:10440000656C203D20252E32660A00000000060063
:1044100001000100010000000010002000400080A9
:10442000080000000800000008000000080000006C
:104430000A2F2F2F2F2F2F2F2F2F2F2F2F2F2F2FB1
:104440002F2F2F2F2F2F2F2F2F2F2F2F2F2F2F2F7C
:104450002F2F2F2F2F2F2F2F2F2F2F2F2F2F2F2F6C
:104460002F2F2F2F2F2F2F2F2F2F2F2F2F2F2F2F5C
:104470002F2F2F2F2F2F2F2F2F2F2F2F2F0A2F2F71
:10448000202020202020202020202020202020202C
:10449000202020202020202020202020202A2A2AFE
:1044A0002A2065446F67202A2A2A2A2020202020DB
:1044B00020202020202020202020202020202020FC
:1044C00020202020202020202F2F0A2F2F202020C6
:1044D00020202020202020202020202020202020DC
:1044E00020202020202020202020202020202020CC
:1044F00020202020202020202020202020202020BC
:1045000020202020202020202020202020202020AB
:1045100020202020202F2F0A2F2F20202020202075
:10452000202020202020202020202020456C656392
:1045300074726F6E696320446F6720486F6D6520E9
:1045400053656375726974792053797374656D204E
:10455000202020202020202020202020202020205B
:1045600020202F2F0A2F2F20202020202020202025
:10457000202020202020202020202020202020203B
:1045800020202020202020206F6E207468652020AD
:10459000202020202020202020202020202020201B
:1045A0002020202020202020202020202020202FFC
:1045B0002F0A2F2F202020202020202020202020E4
:1045C00020202020202020202020202020202053B8
:1045D000544D333246342D446973636F7665727976
:1045E00020202020202020202020202020202020CB
:1045F0002020202020202020202020202F2F0A2FA4
:104600002F2020202020202020202020202020209B
:10461000202020202020202020202020202020209A
:10462000202020202020202020202020202020208A
:10463000202020202020202020202020202020207A
:104640002020202020202020202F2F0A2F2F202044
:10465000202020202020202020202020202020205A
:10466000202020202020202020202020566572732A
:10467000696F6E20302E3120202020202020202025
:10468000202020202020202020202020202020202A
:104690002020202020202F2F0A2F2F2020202020F4
:1046A00020202020202020202020202020202043E7
:1046B0006F707972696768742028632920323031FD
:1046C0003420446176696420427279616E742020DE
:1046D00020202020202020202020202020202020DA
:1046E0002020202F2F0A2F2F2020202020202020A4
:1046F00020202020202020202020202020202020BA
:104700002020416C6C205269676874732052657375
:104710006572766564202020202020202020202023
:104720002020202020202020202020202020202089
:104730002F2F0A2F2F202020202020202044697393
:10474000747269627574656420756E646572207434
:10475000686520474E5520536F66747761726520F7
:104760004C6963656E7365202873656520434F50FF
:1047700059494E472920202020202020202F2F0A71
:104780002F2F2F2F2F2F2F2F2F2F2F2F2F2F2F2F39
:104790002F2F2F2F2F2F2F2F2F2F2F2F2F2F2F2F29
:1047A0002F2F2F2F2F2F2F2F2F2F2F2F2F2F2F2F19
:1047B0002F2F2F2F2F2F2F2F2F2F2F2F2F2F2F2F09
:1047C0002F2F2F2F2F2F2F2F2F2F2F2F0A0A0000A1
:1047D000F04700080000002014040000A4130008A3
:1047E000784A0008140400207C2C0000A02E000849
:1047F00013304402100872582230021120320F2365
:1048000031011340011B806F0413AF0214403201C9
:1048100014C0E10323A0CD1460AF041B208418133F
:104820003306E380BB3210193A011A1CF0FF46052B
:10483000021A41130240DA0C043173FFFF5BC0120D
:1048400060122017B86002400C3C3920622F3228D9
:104850001A24B929D4322282212D010203040455DD
:104860000607080928441C15310F2B24400A261F6F
:104870003B19352E4A06221B3715312A46102C25A6
:10488000411F3B3450031F1834122E27430D292299
:104890003E1C38314D09251E3A18342D49132F2856
:1048A00044223E3753011D16322C281D0B27203C75
:1048B0001A362F4B07231C3816322B47112D264250
:1048C000203C3551042019352C68090E2A233F1D40
:1048D00039324E6808097F14302945233F38548007
:1048E000681012152717292C3E182A2D3F2F4144F6
:1048F000560828093042455747595C6E1C2D2E40FA
:104900004355146D46585B6D08291C68155E70731D
:104910008515272A3C2C3E41532D3F42544456597D
:104920006B08280945575A6C5C6E71831C2D4355E2
:10493000586A146D5B6D708208291C681573858830
:104940009A12242739293B3E502A3C3F5141535665
:104950006808280942545769596B6E801C2D4052D3
:104960005567146D586A6D7F08291C68157082851B
:104970009727393C4E3E5053653F51546656686BFD
:104980007D08280957696C7E6E8083951C2D5567BC
:104990006A7C146D6D7F829408291C2585979AACDA
:1049A000180E0101030304040606070709090A019A
:1049B000181E0B0B0D0D0E0E1010111113131414E5
:1049C0000F0F1010121213131515161618181901BF
:1049D000680F1A1A1C1C1D1D1F1F202022222323B2
:1049E0001818081B1B1C1C1E1E1F0149181818250F
:1049F0002526262828292924242525272728282A4A
:104A00002A2B2B2D2D2E01A80F2F2F31313232348E
:104A1000343535373738384C2934A815262627271A
:104A200029292A2A2C2C2D2D2F2F30302B2B2C2CC2
:104A300034A81135353636383839393B3B3C3C3EA5
:104A40003E3F3F4C1C3A3A3B01491818184141423D
:104A5000424444454540404141434344444646471F
:104A60004749494A01000F004B4B4D4D4E4E5050A7
:084A700051515353545400004E
:040000050800018965
:00000001FF
